{
  "contractName": "ERC271",
  "abi": [
    {
      "constant": true,
      "inputs": [],
      "name": "name",
      "outputs": [
        {
          "name": "",
          "type": "string"
        }
      ],
      "payable": false,
      "stateMutability": "view",
      "type": "function"
    },
    {
      "constant": true,
      "inputs": [],
      "name": "tokenId",
      "outputs": [
        {
          "name": "",
          "type": "uint256"
        }
      ],
      "payable": false,
      "stateMutability": "view",
      "type": "function"
    },
    {
      "constant": true,
      "inputs": [],
      "name": "totalSupply",
      "outputs": [
        {
          "name": "",
          "type": "uint256"
        }
      ],
      "payable": false,
      "stateMutability": "view",
      "type": "function"
    },
    {
      "constant": true,
      "inputs": [
        {
          "name": "",
          "type": "uint256"
        }
      ],
      "name": "ownerOf",
      "outputs": [
        {
          "name": "",
          "type": "address"
        }
      ],
      "payable": false,
      "stateMutability": "view",
      "type": "function"
    },
    {
      "constant": true,
      "inputs": [
        {
          "name": "",
          "type": "address"
        }
      ],
      "name": "balanceOf",
      "outputs": [
        {
          "name": "",
          "type": "uint256"
        }
      ],
      "payable": false,
      "stateMutability": "view",
      "type": "function"
    },
    {
      "constant": true,
      "inputs": [],
      "name": "symbol",
      "outputs": [
        {
          "name": "",
          "type": "string"
        }
      ],
      "payable": false,
      "stateMutability": "view",
      "type": "function"
    },
    {
      "constant": true,
      "inputs": [
        {
          "name": "",
          "type": "uint256"
        }
      ],
      "name": "tokenApprovals",
      "outputs": [
        {
          "name": "",
          "type": "address"
        }
      ],
      "payable": false,
      "stateMutability": "view",
      "type": "function"
    },
    {
      "constant": true,
      "inputs": [],
      "name": "admin",
      "outputs": [
        {
          "name": "",
          "type": "address"
        }
      ],
      "payable": false,
      "stateMutability": "view",
      "type": "function"
    },
    {
      "inputs": [
        {
          "name": "_name",
          "type": "string"
        },
        {
          "name": "_symbol",
          "type": "string"
        }
      ],
      "payable": false,
      "stateMutability": "nonpayable",
      "type": "constructor"
    },
    {
      "anonymous": false,
      "inputs": [
        {
          "indexed": true,
          "name": "_owner",
          "type": "address"
        },
        {
          "indexed": true,
          "name": "_approved",
          "type": "address"
        },
        {
          "indexed": true,
          "name": "_tokenId",
          "type": "uint256"
        }
      ],
      "name": "Approval",
      "type": "event"
    },
    {
      "anonymous": false,
      "inputs": [
        {
          "indexed": true,
          "name": "_from",
          "type": "address"
        },
        {
          "indexed": true,
          "name": "_to",
          "type": "address"
        },
        {
          "indexed": false,
          "name": "_tokenId",
          "type": "uint256"
        }
      ],
      "name": "Transfer",
      "type": "event"
    },
    {
      "anonymous": false,
      "inputs": [
        {
          "indexed": true,
          "name": "_sender",
          "type": "address"
        },
        {
          "indexed": true,
          "name": "_to",
          "type": "address"
        },
        {
          "indexed": false,
          "name": "_result",
          "type": "bool"
        }
      ],
      "name": "ApprovalForAll",
      "type": "event"
    },
    {
      "constant": false,
      "inputs": [
        {
          "name": "_approved",
          "type": "address"
        },
        {
          "name": "_tokenId",
          "type": "uint256"
        }
      ],
      "name": "approve",
      "outputs": [],
      "payable": true,
      "stateMutability": "payable",
      "type": "function"
    }
  ],
  "bytecode": "0x60806040526298968060055534801561001757600080fd5b50604051610a98380380610a988339810180604052604081101561003a57600080fd5b81019080805164010000000081111561005257600080fd5b8281019050602081018481111561006857600080fd5b815185600182028301116401000000008211171561008557600080fd5b505092919060200180516401000000008111156100a157600080fd5b828101905060208101848111156100b757600080fd5b81518560018202830111640100000000821117156100d457600080fd5b505092919050505081600190805190602001906100f2929190610205565b508060029080519060200190610109929190610205565b50336000806101000a81548173ffffffffffffffffffffffffffffffffffffffff021916908373ffffffffffffffffffffffffffffffffffffffff16021790555060016003600082825401925050819055503360076000600354815260200190815260200160002060006101000a81548173ffffffffffffffffffffffffffffffffffffffff021916908373ffffffffffffffffffffffffffffffffffffffff160217905550600554600660003373ffffffffffffffffffffffffffffffffffffffff1673ffffffffffffffffffffffffffffffffffffffff1681526020019081526020016000206000828254019250508190555050506102aa565b828054600181600116156101000203166002900490600052602060002090601f016020900481019282601f1061024657805160ff1916838001178555610274565b82800160010185558215610274579182015b82811115610273578251825591602001919060010190610258565b5b5090506102819190610285565b5090565b6102a791905b808211156102a357600081600090555060010161028b565b5090565b90565b6107df806102b96000396000f3fe608060405260043610610099576000357c0100000000000000000000000000000000000000000000000000000000900463ffffffff16806306fdde031461009e578063095ea7b31461012e57806317d70f7c1461017c57806318160ddd146101a75780636352211e146101d257806370a082311461024d57806395d89b41146102b2578063acdeb5b914610342578063f851a440146103bd575b600080fd5b3480156100aa57600080fd5b506100b3610414565b6040518080602001828103825283818151815260200191508051906020019080838360005b838110156100f35780820151818401526020810190506100d8565b50505050905090810190601f1680156101205780820380516001836020036101000a031916815260200191505b509250505060405180910390f35b61017a6004803603604081101561014457600080fd5b81019080803573ffffffffffffffffffffffffffffffffffffffff169060200190929190803590602001909291905050506104b2565b005b34801561018857600080fd5b50610191610666565b6040518082815260200191505060405180910390f35b3480156101b357600080fd5b506101bc61066c565b6040518082815260200191505060405180910390f35b3480156101de57600080fd5b5061020b600480360360208110156101f557600080fd5b8101908080359060200190929190505050610672565b604051808273ffffffffffffffffffffffffffffffffffffffff1673ffffffffffffffffffffffffffffffffffffffff16815260200191505060405180910390f35b34801561025957600080fd5b5061029c6004803603602081101561027057600080fd5b81019080803573ffffffffffffffffffffffffffffffffffffffff1690602001909291905050506106a5565b6040518082815260200191505060405180910390f35b3480156102be57600080fd5b506102c76106bd565b6040518080602001828103825283818151815260200191508051906020019080838360005b838110156103075780820151818401526020810190506102ec565b50505050905090810190601f1680156103345780820380516001836020036101000a031916815260200191505b509250505060405180910390f35b34801561034e57600080fd5b5061037b6004803603602081101561036557600080fd5b810190808035906020019092919050505061075b565b604051808273ffffffffffffffffffffffffffffffffffffffff1673ffffffffffffffffffffffffffffffffffffffff16815260200191505060405180910390f35b3480156103c957600080fd5b506103d261078e565b604051808273ffffffffffffffffffffffffffffffffffffffff1673ffffffffffffffffffffffffffffffffffffffff16815260200191505060405180910390f35b60018054600181600116156101000203166002900480601f0160208091040260200160405190810160405280929190818152602001828054600181600116156101000203166002900480156104aa5780601f1061047f576101008083540402835291602001916104aa565b820191906000526020600020905b81548152906001019060200180831161048d57829003601f168201915b505050505081565b60006007600083815260200190815260200160002060009054906101000a900473ffffffffffffffffffffffffffffffffffffffff1690508273ffffffffffffffffffffffffffffffffffffffff168173ffffffffffffffffffffffffffffffffffffffff16141515156105b4576040517f08c379a00000000000000000000000000000000000000000000000000000000081526004018080602001828103825260248152602001807f6f776e65722063616e6e6f742062652074686520617070726f7665642061646481526020017f726573730000000000000000000000000000000000000000000000000000000081525060400191505060405180910390fd5b826009600084815260200190815260200160002060006101000a81548173ffffffffffffffffffffffffffffffffffffffff021916908373ffffffffffffffffffffffffffffffffffffffff160217905550818373ffffffffffffffffffffffffffffffffffffffff168273ffffffffffffffffffffffffffffffffffffffff167f8c5be1e5ebec7d5bd14f71427d1e84f3dd0314c0f7b2291e5b200ac8c7c3b92560405160405180910390a4505050565b60035481565b60055481565b60076020528060005260406000206000915054906101000a900473ffffffffffffffffffffffffffffffffffffffff1681565b60066020528060005260406000206000915090505481565b60028054600181600116156101000203166002900480601f0160208091040260200160405190810160405280929190818152602001828054600181600116156101000203166002900480156107535780601f1061072857610100808354040283529160200191610753565b820191906000526020600020905b81548152906001019060200180831161073657829003601f168201915b505050505081565b60096020528060005260406000206000915054906101000a900473ffffffffffffffffffffffffffffffffffffffff1681565b6000809054906101000a900473ffffffffffffffffffffffffffffffffffffffff168156fea165627a7a723058201381c9c267714a08781f1e20740eca290804ac8255f3fc8271f18a55703c5a730029",
  "source": "pragma solidity ^0.5.0;\n\ncontract ERC271 {\n  address public admin;\n\n  string public name;\n  string public symbol;\n  uint256 public tokenId;\n  uint256[] internal allTokens;\n  uint256 public totalSupply = 10000000;\n\n  mapping(address => uint256) public balanceOf; // find token balance by address of owner\n  mapping(uint256 => address) public ownerOf;  // find address of tokenOwner by tokenId\n  mapping(address => uint256[]) internal ownedTokens;  // who owns what token by address\n\n  mapping(uint256 => address) public tokenApprovals; // address of users approved token use\n  mapping(address =>  mapping(address => bool)) internal _operatorApprovals; //owner to operator approvals\n\n  constructor(string memory _name, string memory _symbol) public{\n    name = _name;\n    symbol = _symbol;\n    admin = msg.sender;\n    tokenId += 1;\n    ownerOf[tokenId] = msg.sender;\n    balanceOf[msg.sender] += totalSupply;\n  }\n\n  event Approval(address indexed _owner, address indexed _approved, uint256 indexed _tokenId);\n  event Transfer(address indexed _from, address indexed _to, uint256 _tokenId);\n  event ApprovalForAll(address indexed _sender, address indexed _to, bool _result);\n\n  function approve(address _approved, uint256 _tokenId) external payable {\n    address owner = ownerOf[_tokenId];\n    require(owner != _approved, 'owner cannot be the approved address');\n    tokenApprovals[_tokenId] = _approved;\n    emit Approval(owner, _approved, _tokenId);\n  }\n\n  // function setApprovalForAll(address _to, bool approved) public {\n  //   require(_to != msg.sender, 'sender and recipient can not be the same');\n  //   _operatorApprovals[msg.sender][_to];\n  //   emit ApprovalForAll(msg.sender, _to, approved);\n  // }\n\n  // function isApprovedForAll(address owner, address operator) public view returns(bool){\n  //   // return _operatorApprovals[owner][operator];\n  // }\n\n  // function getApproved(uint256 _tokenId) public view returns(address){\n  //   require(_tokenId != 0, 'a tokenId must exist');\n  //   return tokenApprovals[tokenId];\n  // }\n\n\n  // function transferFrom(address _from, address _to, uint256 _tokenId) external payable {\n  //   require(_to != address(0), 'must be a valid address to send to');\n  //   require(_from != _to, 'can not transfer token to same address');\n  //   require(ownerOf[_tokenId] != address(0), 'sender must be approved');\n  //   ownerOf[_tokenId] = _to;\n  //   balanceOf[_to] += 1;\n  //   balanceOf[_from] -= 1;\n  //   emit Transfer(_from, _to, _tokenId);\n\n  // }\n\n  // function safeTransferFrom(address _from, address _to, uint256 _tokenId, bytes calldata data) external payable{\n  //   transferFrom(_from, _to, _tokenId);\n  //   // require(_checkOnERC721Received(_from, _to, _tokenId, data), 'not a safe function to perform');\n  // }\n  // function safeTransferFrom(address _from, address _to, uint256 _tokenId) external payable{\n  //   transferFrom(_from, _to, _tokenId);\n  //   // require(_checkOnERC721Received(_from, _to, _tokenId, data), 'not a safe function to perform');\n  // }\n\n\n}\n",
  "sourcePath": "/Users/lafountain/Desktop/BitCoin Inc./NonFungibleContract/contracts/ERC271.sol",
  "compiler": {
    "name": "solc",
    "version": "0.5.0+commit.1d4f565a.Emscripten.clang"
  },
  "schemaVersion": "3.0.9",
  "updatedAt": "2019-08-08T19:29:44.176Z",
  "devdoc": {
    "methods": {}
  },
  "userdoc": {
    "methods": {}
  }
}