{
  "contractName": "ERC271",
  "abi": [
    {
      "constant": true,
      "inputs": [],
      "name": "name",
      "outputs": [
        {
          "name": "",
          "type": "string"
        }
      ],
      "payable": false,
      "stateMutability": "view",
      "type": "function"
    },
    {
      "constant": true,
      "inputs": [],
      "name": "tokenId",
      "outputs": [
        {
          "name": "",
          "type": "uint256"
        }
      ],
      "payable": false,
      "stateMutability": "view",
      "type": "function"
    },
    {
      "constant": true,
      "inputs": [],
      "name": "totalSupply",
      "outputs": [
        {
          "name": "",
          "type": "uint256"
        }
      ],
      "payable": false,
      "stateMutability": "view",
      "type": "function"
    },
    {
      "constant": true,
      "inputs": [
        {
          "name": "",
          "type": "uint256"
        }
      ],
      "name": "ownerOf",
      "outputs": [
        {
          "name": "",
          "type": "address"
        }
      ],
      "payable": false,
      "stateMutability": "view",
      "type": "function"
    },
    {
      "constant": true,
      "inputs": [
        {
          "name": "",
          "type": "address"
        }
      ],
      "name": "balanceOf",
      "outputs": [
        {
          "name": "",
          "type": "uint256"
        }
      ],
      "payable": false,
      "stateMutability": "view",
      "type": "function"
    },
    {
      "constant": true,
      "inputs": [],
      "name": "symbol",
      "outputs": [
        {
          "name": "",
          "type": "string"
        }
      ],
      "payable": false,
      "stateMutability": "view",
      "type": "function"
    },
    {
      "constant": true,
      "inputs": [
        {
          "name": "",
          "type": "uint256"
        }
      ],
      "name": "tokenApprovals",
      "outputs": [
        {
          "name": "",
          "type": "address"
        }
      ],
      "payable": false,
      "stateMutability": "view",
      "type": "function"
    },
    {
      "constant": true,
      "inputs": [],
      "name": "admin",
      "outputs": [
        {
          "name": "",
          "type": "address"
        }
      ],
      "payable": false,
      "stateMutability": "view",
      "type": "function"
    },
    {
      "inputs": [
        {
          "name": "_name",
          "type": "string"
        },
        {
          "name": "_symbol",
          "type": "string"
        }
      ],
      "payable": false,
      "stateMutability": "nonpayable",
      "type": "constructor"
    },
    {
      "anonymous": false,
      "inputs": [
        {
          "indexed": true,
          "name": "_owner",
          "type": "address"
        },
        {
          "indexed": true,
          "name": "_approved",
          "type": "address"
        },
        {
          "indexed": true,
          "name": "_tokenId",
          "type": "uint256"
        }
      ],
      "name": "Approval",
      "type": "event"
    },
    {
      "anonymous": false,
      "inputs": [
        {
          "indexed": true,
          "name": "_from",
          "type": "address"
        },
        {
          "indexed": true,
          "name": "_to",
          "type": "address"
        },
        {
          "indexed": false,
          "name": "_tokenId",
          "type": "uint256"
        }
      ],
      "name": "Transfer",
      "type": "event"
    },
    {
      "anonymous": false,
      "inputs": [
        {
          "indexed": true,
          "name": "_sender",
          "type": "address"
        },
        {
          "indexed": true,
          "name": "_to",
          "type": "address"
        },
        {
          "indexed": false,
          "name": "_result",
          "type": "bool"
        }
      ],
      "name": "ApprovalForAll",
      "type": "event"
    },
    {
      "constant": false,
      "inputs": [
        {
          "name": "_approved",
          "type": "address"
        },
        {
          "name": "_tokenId",
          "type": "uint256"
        }
      ],
      "name": "approve",
      "outputs": [],
      "payable": true,
      "stateMutability": "payable",
      "type": "function"
    },
    {
      "constant": false,
      "inputs": [
        {
          "name": "_to",
          "type": "address"
        },
        {
          "name": "approved",
          "type": "bool"
        }
      ],
      "name": "setApprovalForAll",
      "outputs": [],
      "payable": false,
      "stateMutability": "nonpayable",
      "type": "function"
    },
    {
      "constant": true,
      "inputs": [
        {
          "name": "owner",
          "type": "address"
        },
        {
          "name": "operator",
          "type": "address"
        }
      ],
      "name": "isApprovedForAll",
      "outputs": [
        {
          "name": "",
          "type": "bool"
        }
      ],
      "payable": false,
      "stateMutability": "view",
      "type": "function"
    },
    {
      "constant": true,
      "inputs": [
        {
          "name": "_tokenId",
          "type": "uint256"
        }
      ],
      "name": "getApproved",
      "outputs": [
        {
          "name": "",
          "type": "address"
        }
      ],
      "payable": false,
      "stateMutability": "view",
      "type": "function"
    },
    {
      "constant": false,
      "inputs": [
        {
          "name": "_from",
          "type": "address"
        },
        {
          "name": "_to",
          "type": "address"
        },
        {
          "name": "_tokenId",
          "type": "uint256"
        }
      ],
      "name": "transferFrom",
      "outputs": [],
      "payable": true,
      "stateMutability": "payable",
      "type": "function"
    },
    {
      "constant": false,
      "inputs": [
        {
          "name": "_from",
          "type": "address"
        },
        {
          "name": "_to",
          "type": "address"
        },
        {
          "name": "_tokenId",
          "type": "uint256"
        }
      ],
      "name": "safeTransferFrom",
      "outputs": [],
      "payable": true,
      "stateMutability": "payable",
      "type": "function"
    },
    {
      "constant": false,
      "inputs": [
        {
          "name": "_from",
          "type": "address"
        },
        {
          "name": "_to",
          "type": "address"
        },
        {
          "name": "_tokenId",
          "type": "uint256"
        },
        {
          "name": "data",
          "type": "bytes"
        }
      ],
      "name": "safeTransferFrom",
      "outputs": [],
      "payable": true,
      "stateMutability": "payable",
      "type": "function"
    }
  ],
  "bytecode": "0x6080604052629896806005553480156200001857600080fd5b506040516200144338038062001443833981018060405260408110156200003e57600080fd5b8101908080516401000000008111156200005757600080fd5b828101905060208101848111156200006e57600080fd5b81518560018202830111640100000000821117156200008c57600080fd5b50509291906020018051640100000000811115620000a957600080fd5b82810190506020810184811115620000c057600080fd5b8151856001820283011164010000000082111715620000de57600080fd5b50509291905050508160019080519060200190620000fe92919062000214565b5080600290805190602001906200011792919062000214565b50336000806101000a81548173ffffffffffffffffffffffffffffffffffffffff021916908373ffffffffffffffffffffffffffffffffffffffff16021790555060016003600082825401925050819055503360076000600354815260200190815260200160002060006101000a81548173ffffffffffffffffffffffffffffffffffffffff021916908373ffffffffffffffffffffffffffffffffffffffff160217905550600554600660003373ffffffffffffffffffffffffffffffffffffffff1673ffffffffffffffffffffffffffffffffffffffff168152602001908152602001600020600082825401925050819055505050620002c3565b828054600181600116156101000203166002900490600052602060002090601f016020900481019282601f106200025757805160ff191683800117855562000288565b8280016001018555821562000288579182015b82811115620002875782518255916020019190600101906200026a565b5b5090506200029791906200029b565b5090565b620002c091905b80821115620002bc576000816000905550600101620002a2565b5090565b90565b61117080620002d36000396000f3fe6080604052600436106100db576000357c0100000000000000000000000000000000000000000000000000000000900463ffffffff16806306fdde03146100e0578063081812fc14610170578063095ea7b3146101eb57806317d70f7c1461023957806318160ddd1461026457806323b872dd1461028f57806342842e0e146102fd5780636352211e1461036b57806370a08231146103e657806395d89b411461044b578063a22cb465146104db578063acdeb5b914610538578063b88d4fde146105b3578063e985e9c514610676578063f851a440146106ff575b600080fd5b3480156100ec57600080fd5b506100f5610756565b6040518080602001828103825283818151815260200191508051906020019080838360005b8381101561013557808201518184015260208101905061011a565b50505050905090810190601f1680156101625780820380516001836020036101000a031916815260200191505b509250505060405180910390f35b34801561017c57600080fd5b506101a96004803603602081101561019357600080fd5b81019080803590602001909291905050506107f4565b604051808273ffffffffffffffffffffffffffffffffffffffff1673ffffffffffffffffffffffffffffffffffffffff16815260200191505060405180910390f35b6102376004803603604081101561020157600080fd5b81019080803573ffffffffffffffffffffffffffffffffffffffff169060200190929190803590602001909291905050506108ab565b005b34801561024557600080fd5b5061024e610a5f565b6040518082815260200191505060405180910390f35b34801561027057600080fd5b50610279610a65565b6040518082815260200191505060405180910390f35b6102fb600480360360608110156102a557600080fd5b81019080803573ffffffffffffffffffffffffffffffffffffffff169060200190929190803573ffffffffffffffffffffffffffffffffffffffff16906020019092919080359060200190929190505050610a6b565b005b6103696004803603606081101561031357600080fd5b81019080803573ffffffffffffffffffffffffffffffffffffffff169060200190929190803573ffffffffffffffffffffffffffffffffffffffff16906020019092919080359060200190929190505050610e30565b005b34801561037757600080fd5b506103a46004803603602081101561038e57600080fd5b8101908080359060200190929190505050610e35565b604051808273ffffffffffffffffffffffffffffffffffffffff1673ffffffffffffffffffffffffffffffffffffffff16815260200191505060405180910390f35b3480156103f257600080fd5b506104356004803603602081101561040957600080fd5b81019080803573ffffffffffffffffffffffffffffffffffffffff169060200190929190505050610e68565b6040518082815260200191505060405180910390f35b34801561045757600080fd5b50610460610e80565b6040518080602001828103825283818151815260200191508051906020019080838360005b838110156104a0578082015181840152602081019050610485565b50505050905090810190601f1680156104cd5780820380516001836020036101000a031916815260200191505b509250505060405180910390f35b3480156104e757600080fd5b50610536600480360360408110156104fe57600080fd5b81019080803573ffffffffffffffffffffffffffffffffffffffff169060200190929190803515159060200190929190505050610f1e565b005b34801561054457600080fd5b506105716004803603602081101561055b57600080fd5b81019080803590602001909291905050506110dd565b604051808273ffffffffffffffffffffffffffffffffffffffff1673ffffffffffffffffffffffffffffffffffffffff16815260200191505060405180910390f35b610674600480360360808110156105c957600080fd5b81019080803573ffffffffffffffffffffffffffffffffffffffff169060200190929190803573ffffffffffffffffffffffffffffffffffffffff169060200190929190803590602001909291908035906020019064010000000081111561063057600080fd5b82018360208201111561064257600080fd5b8035906020019184600183028401116401000000008311171561066457600080fd5b9091929391929390505050611110565b005b34801561068257600080fd5b506106e56004803603604081101561069957600080fd5b81019080803573ffffffffffffffffffffffffffffffffffffffff169060200190929190803573ffffffffffffffffffffffffffffffffffffffff169060200190929190505050611117565b604051808215151515815260200191505060405180910390f35b34801561070b57600080fd5b5061071461111f565b604051808273ffffffffffffffffffffffffffffffffffffffff1673ffffffffffffffffffffffffffffffffffffffff16815260200191505060405180910390f35b60018054600181600116156101000203166002900480601f0160208091040260200160405190810160405280929190818152602001828054600181600116156101000203166002900480156107ec5780601f106107c1576101008083540402835291602001916107ec565b820191906000526020600020905b8154815290600101906020018083116107cf57829003601f168201915b505050505081565b600080821415151561086e576040517f08c379a00000000000000000000000000000000000000000000000000000000081526004018080602001828103825260148152602001807f6120746f6b656e4964206d75737420657869737400000000000000000000000081525060200191505060405180910390fd5b60096000600354815260200190815260200160002060009054906101000a900473ffffffffffffffffffffffffffffffffffffffff169050919050565b60006007600083815260200190815260200160002060009054906101000a900473ffffffffffffffffffffffffffffffffffffffff1690508273ffffffffffffffffffffffffffffffffffffffff168173ffffffffffffffffffffffffffffffffffffffff16141515156109ad576040517f08c379a00000000000000000000000000000000000000000000000000000000081526004018080602001828103825260248152602001807f6f776e65722063616e6e6f742062652074686520617070726f7665642061646481526020017f726573730000000000000000000000000000000000000000000000000000000081525060400191505060405180910390fd5b826009600084815260200190815260200160002060006101000a81548173ffffffffffffffffffffffffffffffffffffffff021916908373ffffffffffffffffffffffffffffffffffffffff160217905550818373ffffffffffffffffffffffffffffffffffffffff168273ffffffffffffffffffffffffffffffffffffffff167f8c5be1e5ebec7d5bd14f71427d1e84f3dd0314c0f7b2291e5b200ac8c7c3b92560405160405180910390a4505050565b60035481565b60055481565b600073ffffffffffffffffffffffffffffffffffffffff168273ffffffffffffffffffffffffffffffffffffffff1614151515610b36576040517f08c379a00000000000000000000000000000000000000000000000000000000081526004018080602001828103825260228152602001807f6d75737420626520612076616c6964206164647265737320746f2073656e642081526020017f746f00000000000000000000000000000000000000000000000000000000000081525060400191505060405180910390fd5b8173ffffffffffffffffffffffffffffffffffffffff168373ffffffffffffffffffffffffffffffffffffffff1614151515610c00576040517f08c379a00000000000000000000000000000000000000000000000000000000081526004018080602001828103825260268152602001807f63616e206e6f74207472616e7366657220746f6b656e20746f2073616d65206181526020017f646472657373000000000000000000000000000000000000000000000000000081525060400191505060405180910390fd5b600073ffffffffffffffffffffffffffffffffffffffff166007600083815260200190815260200160002060009054906101000a900473ffffffffffffffffffffffffffffffffffffffff1673ffffffffffffffffffffffffffffffffffffffff1614151515610cd8576040517f08c379a00000000000000000000000000000000000000000000000000000000081526004018080602001828103825260178152602001807f73656e646572206d75737420626520617070726f76656400000000000000000081525060200191505060405180910390fd5b816007600083815260200190815260200160002060006101000a81548173ffffffffffffffffffffffffffffffffffffffff021916908373ffffffffffffffffffffffffffffffffffffffff1602179055506001600660008473ffffffffffffffffffffffffffffffffffffffff1673ffffffffffffffffffffffffffffffffffffffff168152602001908152602001600020600082825401925050819055506001600660008573ffffffffffffffffffffffffffffffffffffffff1673ffffffffffffffffffffffffffffffffffffffff168152602001908152602001600020600082825403925050819055508173ffffffffffffffffffffffffffffffffffffffff168373ffffffffffffffffffffffffffffffffffffffff167fddf252ad1be2c89b69c2b068fc378daa952ba7f163c4a11628f55a4df523b3ef836040518082815260200191505060405180910390a3505050565b505050565b60076020528060005260406000206000915054906101000a900473ffffffffffffffffffffffffffffffffffffffff1681565b60066020528060005260406000206000915090505481565b60028054600181600116156101000203166002900480601f016020809104026020016040519081016040528092919081815260200182805460018160011615610100020316600290048015610f165780601f10610eeb57610100808354040283529160200191610f16565b820191906000526020600020905b815481529060010190602001808311610ef957829003601f168201915b505050505081565b3373ffffffffffffffffffffffffffffffffffffffff168273ffffffffffffffffffffffffffffffffffffffff1614151515610fe8576040517f08c379a00000000000000000000000000000000000000000000000000000000081526004018080602001828103825260288152602001807f73656e64657220616e6420726563697069656e742063616e206e6f742062652081526020017f7468652073616d6500000000000000000000000000000000000000000000000081525060400191505060405180910390fd5b600a60003373ffffffffffffffffffffffffffffffffffffffff1673ffffffffffffffffffffffffffffffffffffffff16815260200190815260200160002060008373ffffffffffffffffffffffffffffffffffffffff1673ffffffffffffffffffffffffffffffffffffffff16815260200190815260200160002060009054906101000a9050508173ffffffffffffffffffffffffffffffffffffffff163373ffffffffffffffffffffffffffffffffffffffff167f17307eab39ab6107e8899845ad3d59bd9653f200f220920489ca2b5937696c3183604051808215151515815260200191505060405180910390a35050565b60096020528060005260406000206000915054906101000a900473ffffffffffffffffffffffffffffffffffffffff1681565b5050505050565b600092915050565b6000809054906101000a900473ffffffffffffffffffffffffffffffffffffffff168156fea165627a7a72305820f480860bdce41ef83f7648f0443f8c61c8429fdbaf017c9a9b0cc4e25b9e326d0029",
  "source": "pragma solidity ^0.5.0;\n\ncontract ERC271 {\n  address public admin;\n\n  string public name;\n  string public symbol;\n  uint256 public tokenId;\n  uint256[] internal allTokens;\n  uint256 public totalSupply = 10000000;\n\n  mapping(address => uint256) public balanceOf; // find token balance by address of owner\n  mapping(uint256 => address) public ownerOf;  // find address of tokenOwner by tokenId\n  mapping(address => uint256[]) internal ownedTokens;  // who owns what token by address\n\n  mapping(uint256 => address) public tokenApprovals; // address of users approved token use\n  mapping(address =>  mapping(address => bool)) internal _operatorApprovals; //owner to operator approvals\n\n  constructor(string memory _name, string memory _symbol) public{\n    name = _name;\n    symbol = _symbol;\n    admin = msg.sender;\n    tokenId += 1;\n    ownerOf[tokenId] = msg.sender;\n    balanceOf[msg.sender] += totalSupply;\n  }\n\n  event Approval(address indexed _owner, address indexed _approved, uint256 indexed _tokenId);\n  event Transfer(address indexed _from, address indexed _to, uint256 _tokenId);\n  event ApprovalForAll(address indexed _sender, address indexed _to, bool _result);\n\n  function approve(address _approved, uint256 _tokenId) external payable {\n    address owner = ownerOf[_tokenId];\n    require(owner != _approved, 'owner cannot be the approved address');\n    tokenApprovals[_tokenId] = _approved;\n    emit Approval(owner, _approved, _tokenId);\n  }\n\n  function setApprovalForAll(address _to, bool approved) public {\n    require(_to != msg.sender, 'sender and recipient can not be the same');\n    _operatorApprovals[msg.sender][_to];\n    emit ApprovalForAll(msg.sender, _to, approved);\n  }\n\n  function isApprovedForAll(address owner, address operator) public view returns(bool){\n    // return _operatorApprovals[owner][operator];\n  }\n\n  function getApproved(uint256 _tokenId) public view returns(address){\n    require(_tokenId != 0, 'a tokenId must exist');\n    return tokenApprovals[tokenId];\n  }\n\n  function transferFrom(address _from, address _to, uint256 _tokenId) external payable {\n    require(_to != address(0), 'must be a valid address to send to');\n    require(_from != _to, 'can not transfer token to same address');\n    require(ownerOf[_tokenId] != address(0), 'sender must be approved');\n    ownerOf[_tokenId] = _to;\n    balanceOf[_to] += 1;\n    balanceOf[_from] -= 1;\n    emit Transfer(_from, _to, _tokenId);\n  }\n\n  function safeTransferFrom(address _from, address _to, uint256 _tokenId, bytes calldata data) external payable{\n    // transferFrom(_from, _to, _tokenId);\n   \n  }\n\n  function safeTransferFrom(address _from, address _to, uint256 _tokenId) external payable{\n    // transferFrom(_from, _to, _tokenId);\n  }\n\n\n}\n",
  "sourcePath": "/Users/lafountain/Desktop/BitCoin Inc./NonFungibleContract/contracts/ERC271.sol",
  "compiler": {
    "name": "solc",
    "version": "0.5.0+commit.1d4f565a.Emscripten.clang"
  },
  "schemaVersion": "3.0.9",
  "updatedAt": "2019-08-09T19:01:56.399Z",
  "devdoc": {
    "methods": {}
  },
  "userdoc": {
    "methods": {}
  }
}